:0C0000000C9441000C9400000C940000D3
:10000C000C9400000C9400000C9400000C94000064
:10001C000C9400000C9400000C9400000C94000054
:10002C000C9400000C9400000C9400000C94000044
:10003C000C9400000C9400000C9400000C94000034
:10004C000C9400000C9400001027E80364000A00D4
:10005C000100001000011000010037343136300A65
:10006C000037343136310A0037343136330A004523
:10007C006D7074790A00F894EE27ECBBF1E0F5BFD3
:10008C00E5BF8DE0A2E0BB27ED938A95E9F780E010
:10009C0098E0A0E6ED930197E9F7EFE5EDBFE8E016
:1000AC00EEBFC0E6D2E00C9431019AD2A2D2DC9A17
:1000BC0010E0193070F4A3D211F0E0E0C9C0AAE04E
:1000CC00B0E03CD39D9B02C0E0E0C2C092D21F5F67
:1000DC00F0CF95D211F0E0E0BBC000E00230F0F4BC
:1000EC00B3D211F4959801C0959AB4D211F49498A6
:1000FC0001C0949AB5D211F4DF9801C0DF9A30FD9B
:10010C0002C0DE9801C0DE9AC39873D2B0D211F04F
:10011C00E0E09EC0EFE03E270F5FE0CF99C060D2D9
:10012C00DC9A10E0193070F46AD211F0E0E090C063
:10013C00AAE0B0E003D39D9B02C0E0E089C059D295
:10014C001F5FF0CFA0E0B199A1E0EA2FEE0FEE0F08
:10015C00EE0F0E2EA0E0B099A1E0EA2FEE0FEE0FFD
:10016C000E0EA0E09F99A1E0EA2FEE0FA02DAE0F8E
:10017C00E0E09E99E1E0AE0FE12FB0E0A7FDBFEF0C
:10018C00F0E0EA17FB0711F0E0E062C000E002309B
:10019C00F0F4C39859D211F4959801C0959A5AD29B
:1001AC0011F4949801C0949A5BD211F4DF9801C0B9
:1001BC00DF9A30FD02C0DE9801C0DE9A1AD257D207
:1001CC0011F0E0E045C0EFE03E270F5FE0CF3FC00D
:1001DC0007D2A4E6B0E0B2D2DC9A10E01F3070F483
:1001EC000ED211F0E0E034C0AAE0B0E0A7D29D9BA3
:1001FC0002C0E0E02DC0FDD11F5FF0CF00D211F0A6
:10020C00E0E026C09D9902C0E0E022C000E0023090
:10021C00F0F41AD211F4959801C0959A1BD211F4EE
:10022C00949801C0949A1CD211F4DF9801C0DF9A03
:10023C0030FD02C0DE9801C0DE9AC398DAD117D225
:10024C0011F0E0E005C0EFE03E270F5FE0CFE1E00A
:10025C0061D2249608958A98889A8B9AD49AD59AC2
:10026C00D69AD79A8C9A8D9A8E9A8F9ABB9ABA9A5A
:10027C00A49AB998B898A798A698A598E0E0EBB975
:10028C00E8E0EAB9E6E8E0BDE0E0E0BDE6E0E9B9C7
:10029C00829B27C0AAE0B0E051D28299FECF3FDF0B
:1002AC00E03029F0909AE6E6F0E007D219C090DF32
:1002BC00E03029F0909AEDE6F0E0FFD111C0F5DEC8
:1002CC00E03029F0909AE4E7F0E0F7D109C0939A76
:1002DC00EBE7F0E0FA93EA9380E042D12296909813
:1002EC00D7CFD6CFFFCFAA935D9BFECFE881ECB9D9
:1002FC002196089508D28D013C81A32FF4DFD801FB
:10030C00ED91FD913196FE93EE9304D225960895CE
:10031C00BA93AA932697F5D110E0AC85BD85E0E0A1
:10032C00F0E0ED93FC93EA89FB893196EA8BFB8B29
:10033C003197E4912E2FE03009F40BC1E12FE0301E
:10034C0031F4253211F411E001C0BED101C1E1300C
:10035C00A1F4253211F4B8D1FAC012E040E000E06B
:10036C002D3211F401E0F4C02B3211F44BE2F0C049
:10037C00203211F440E2ECC002C0E23039F450E01B
:10038C0013E0203311F40068E3C003C0E33009F03C
:10039C00DFC0203310F02A3308F007C0AAE05A9FC0
:1003AC00502DE22FE0535E0FD3C0E22FE33639F429
:1003BC0092D1E889F989A481AA9393D1C8C0E33773
:1003CC0029F489D194D1F3D01E2F07C0E03749F41A
:1003DC0082D18DD1F8D01E2F086002600F7730E0EB
:1003EC003AC0E43611F0E93611F4046002C0E53786
:1003FC0031F4E4E5F0E0EE83FF8315E00CC0E83562
:10040C0011F4086003C0E83709F0A1C0EEE5F0E094
:10041C00EE83FF8314E002FF15C05DD1A889B98972
:10042C001496ED91FD91EA87FB87AB85AA2322F404
:10043C0076D1EA87FB874DE2403011F01F5F01C097
:10044C000B7F09C048D1A889B9891496ED91FC910C
:10045C001197EA87FB8700FD10C0151770F407FF92
:10046C0008C002FF04C00B7F242F115001C020E3F1
:10047C0001C020E229D15150F0CF312F01FF16C01D
:10048C00303099F003FF06C0EE81FF812591EE8399
:10049C00FF8305C0AE81BF812D91AE83BF8314D184
:1004AC00503009F051503150EBCF48C020E3EE8171
:1004BC00FF8140D1E887F987EE81FF813296EE8388
:1004CC00FF83E885F985AA85BB85AE17BF0750F079
:1004DC002F5FA885B985EA85FB85EA1BFB0BEA87AC
:1004EC00FB87EFCF2A3328F003FF02C0295F01C03E
:1004FC00295D04FD19C0213320F4A885B985119715
:10050C0009F409C0531710F000FF01C011C020E21C
:10051C0007FF0AC020E3006102FF06C00B7F4A936D
:10052C00E0D0503009F05150CFD0503009F051503C
:10053C003150A885B985129708F0B8CF00FF07C0D5
:10054C00503029F05150E0E2EA93CBD0F9CF10E0D3
:10055C00EACEAC85BD85ED91FD91DAD06496089517
:10056C00FF92F82E26971A930A93DE011496002414
:10057C00AF0DB01D8D01E0E0EC83ED83EE83EF83D6
:10058C00DE0118960024AF0DB01DED91FD91FA938C
:10059C00EA931A930A93E0E8F1E0FA93EA93DE0106
:1005AC001896B6DE198108812896FF900895BA93A3
:1005BC00AA93A991B991EE27FF276D91662311F0AB
:1005CC003196FBCF0895BA93AA93AA27BB27E9913A
:1005DC00F9910590002011F01196FBCFFD010895C3
:1005EC0092D035E0DD98DC9A969AC39AC29ADC9840
:1005FC000895DD9AA4E6B0E0A1D0DD980895AAE0B4
:10060C00B0E09CD0A0E0B199A1E0EA2FEE0FEE0F84
:10061C00EE0F0E2EA0E0B099A1E0EA2FEE0FEE0F38
:10062C000E0EA0E09F99A1E0EA2FEE0FA02DAE0FC9
:10063C00E0E09E99E1E0AE0FE12FB0E0A7FDBFEF47
:10064C00F0E0EA17FB070895E32FE870F0E06BD0B9
:10065C00E0300895E32FE470F0E067D0E0300895C7
:10066C00E32FE270F0E0F595E795E0300895C39A3A
:10067C00AAE0B0E063D0A0E0B199A1E0EA2FEE0FC0
:10068C00EE0FEE0F0E2EA0E0B099A1E0EA2FEE0FC8
:10069C00EE0F0E0EA0E09F99A1E0EA2FEE0FA02D19
:1006AC00AE0FE0E09E99E1E0AE0FE32FB0E0A7FDC6
:1006BC00BFEFF0E0EA17FB070895FA93EA9380E0A6
:1006CC004FDF2296939808952A93AD85BE85EF85CA
:1006DC00F88909950895E889F9893497E88BF98B9D
:1006EC000895AD85BE85EF85F88909950895A8898B
:1006FC00B9891496ED91FD91EE83FF83AE81BF8194
:10070C0008955A934A933A932A931A930A93089505
:10071C005D814C813B812A81198108810895F19575
:10072C00E195F0400895F595E795F595E795F595E4
:10073C00E79508950590F491E02D0895109639F001
:10074C00A8958AEF90E00197F1F71197C9F70895F2
:00000001FF
